{
  "_format": "hh-sol-artifact-1",
  "contractName": "PawanCrowdFunding",
  "sourceName": "src/contracts/PawanCrowdFunding.sol",
  "abi": [
    {
      "anonymous": false,
      "inputs": [
        {
          "indexed": false,
          "internalType": "uint256",
          "name": "id",
          "type": "uint256"
        },
        {
          "indexed": false,
          "internalType": "string",
          "name": "actionType",
          "type": "string"
        },
        {
          "indexed": true,
          "internalType": "address",
          "name": "executor",
          "type": "address"
        },
        {
          "indexed": false,
          "internalType": "uint256",
          "name": "timestamp",
          "type": "uint256"
        }
      ],
      "name": "Action",
      "type": "event"
    },
    {
      "inputs": [
        {
          "internalType": "uint256",
          "name": "id",
          "type": "uint256"
        }
      ],
      "name": "backProject",
      "outputs": [
        {
          "internalType": "bool",
          "name": "",
          "type": "bool"
        }
      ],
      "stateMutability": "payable",
      "type": "function"
    },
    {
      "inputs": [],
      "name": "balance",
      "outputs": [
        {
          "internalType": "uint256",
          "name": "",
          "type": "uint256"
        }
      ],
      "stateMutability": "view",
      "type": "function"
    },
    {
      "inputs": [
        {
          "internalType": "string",
          "name": "title",
          "type": "string"
        },
        {
          "internalType": "string",
          "name": "description",
          "type": "string"
        },
        {
          "internalType": "string",
          "name": "imageURL",
          "type": "string"
        },
        {
          "internalType": "uint256",
          "name": "cost",
          "type": "uint256"
        },
        {
          "internalType": "uint256",
          "name": "expiresAt",
          "type": "uint256"
        }
      ],
      "name": "createProject",
      "outputs": [
        {
          "internalType": "bool",
          "name": "",
          "type": "bool"
        }
      ],
      "stateMutability": "nonpayable",
      "type": "function"
    },
    {
      "inputs": [
        {
          "internalType": "uint256",
          "name": "id",
          "type": "uint256"
        }
      ],
      "name": "deleteProject",
      "outputs": [
        {
          "internalType": "bool",
          "name": "",
          "type": "bool"
        }
      ],
      "stateMutability": "nonpayable",
      "type": "function"
    },
    {
      "inputs": [
        {
          "internalType": "uint256",
          "name": "id",
          "type": "uint256"
        }
      ],
      "name": "getBackers",
      "outputs": [
        {
          "components": [
            {
              "internalType": "address",
              "name": "owner",
              "type": "address"
            },
            {
              "internalType": "uint256",
              "name": "contribution",
              "type": "uint256"
            },
            {
              "internalType": "uint256",
              "name": "timestamp",
              "type": "uint256"
            },
            {
              "internalType": "bool",
              "name": "refunded",
              "type": "bool"
            }
          ],
          "internalType": "struct PawanCrowdFunding.backerStruct[]",
          "name": "",
          "type": "tuple[]"
        }
      ],
      "stateMutability": "view",
      "type": "function"
    },
    {
      "inputs": [
        {
          "internalType": "uint256",
          "name": "id",
          "type": "uint256"
        }
      ],
      "name": "getProject",
      "outputs": [
        {
          "components": [
            {
              "internalType": "uint256",
              "name": "id",
              "type": "uint256"
            },
            {
              "internalType": "address",
              "name": "owner",
              "type": "address"
            },
            {
              "internalType": "string",
              "name": "title",
              "type": "string"
            },
            {
              "internalType": "string",
              "name": "description",
              "type": "string"
            },
            {
              "internalType": "string",
              "name": "imageURL",
              "type": "string"
            },
            {
              "internalType": "uint256",
              "name": "cost",
              "type": "uint256"
            },
            {
              "internalType": "uint256",
              "name": "raised",
              "type": "uint256"
            },
            {
              "internalType": "uint256",
              "name": "timestamp",
              "type": "uint256"
            },
            {
              "internalType": "uint256",
              "name": "expiresAt",
              "type": "uint256"
            },
            {
              "internalType": "uint256",
              "name": "backers",
              "type": "uint256"
            },
            {
              "internalType": "enum PawanCrowdFunding.statusEnum",
              "name": "status",
              "type": "uint8"
            }
          ],
          "internalType": "struct PawanCrowdFunding.projectStruct",
          "name": "",
          "type": "tuple"
        }
      ],
      "stateMutability": "view",
      "type": "function"
    },
    {
      "inputs": [],
      "name": "getProjects",
      "outputs": [
        {
          "components": [
            {
              "internalType": "uint256",
              "name": "id",
              "type": "uint256"
            },
            {
              "internalType": "address",
              "name": "owner",
              "type": "address"
            },
            {
              "internalType": "string",
              "name": "title",
              "type": "string"
            },
            {
              "internalType": "string",
              "name": "description",
              "type": "string"
            },
            {
              "internalType": "string",
              "name": "imageURL",
              "type": "string"
            },
            {
              "internalType": "uint256",
              "name": "cost",
              "type": "uint256"
            },
            {
              "internalType": "uint256",
              "name": "raised",
              "type": "uint256"
            },
            {
              "internalType": "uint256",
              "name": "timestamp",
              "type": "uint256"
            },
            {
              "internalType": "uint256",
              "name": "expiresAt",
              "type": "uint256"
            },
            {
              "internalType": "uint256",
              "name": "backers",
              "type": "uint256"
            },
            {
              "internalType": "enum PawanCrowdFunding.statusEnum",
              "name": "status",
              "type": "uint8"
            }
          ],
          "internalType": "struct PawanCrowdFunding.projectStruct[]",
          "name": "",
          "type": "tuple[]"
        }
      ],
      "stateMutability": "view",
      "type": "function"
    },
    {
      "inputs": [],
      "name": "owner",
      "outputs": [
        {
          "internalType": "address",
          "name": "",
          "type": "address"
        }
      ],
      "stateMutability": "view",
      "type": "function"
    },
    {
      "inputs": [
        {
          "internalType": "uint256",
          "name": "id",
          "type": "uint256"
        }
      ],
      "name": "payOutProject",
      "outputs": [
        {
          "internalType": "bool",
          "name": "",
          "type": "bool"
        }
      ],
      "stateMutability": "nonpayable",
      "type": "function"
    },
    {
      "inputs": [],
      "name": "projectCount",
      "outputs": [
        {
          "internalType": "uint256",
          "name": "",
          "type": "uint256"
        }
      ],
      "stateMutability": "view",
      "type": "function"
    },
    {
      "inputs": [
        {
          "internalType": "uint256",
          "name": "",
          "type": "uint256"
        }
      ],
      "name": "projectExist",
      "outputs": [
        {
          "internalType": "bool",
          "name": "",
          "type": "bool"
        }
      ],
      "stateMutability": "view",
      "type": "function"
    },
    {
      "inputs": [
        {
          "internalType": "uint256",
          "name": "id",
          "type": "uint256"
        }
      ],
      "name": "requestRefund",
      "outputs": [
        {
          "internalType": "bool",
          "name": "",
          "type": "bool"
        }
      ],
      "stateMutability": "nonpayable",
      "type": "function"
    },
    {
      "inputs": [],
      "name": "stats",
      "outputs": [
        {
          "internalType": "uint256",
          "name": "totalProjects",
          "type": "uint256"
        },
        {
          "internalType": "uint256",
          "name": "totalBacking",
          "type": "uint256"
        },
        {
          "internalType": "uint256",
          "name": "totalDonations",
          "type": "uint256"
        }
      ],
      "stateMutability": "view",
      "type": "function"
    },
    {
      "inputs": [
        {
          "internalType": "uint256",
          "name": "id",
          "type": "uint256"
        },
        {
          "internalType": "string",
          "name": "title",
          "type": "string"
        },
        {
          "internalType": "string",
          "name": "description",
          "type": "string"
        },
        {
          "internalType": "string",
          "name": "imageURL",
          "type": "string"
        },
        {
          "internalType": "uint256",
          "name": "expiresAt",
          "type": "uint256"
        }
      ],
      "name": "updateProject",
      "outputs": [
        {
          "internalType": "bool",
          "name": "",
          "type": "bool"
        }
      ],
      "stateMutability": "nonpayable",
      "type": "function"
    }
  ],
  "bytecode": "0x608060405234801561000f575f80fd5b506133ff8061001d5f395ff3fe6080604052600436106100dc575f3560e01c8063a4b2409e1161007e578063c9168b7211610058578063c9168b72146102f6578063d80528ae14610332578063dcc601281461035e578063f0f3f2c814610388576100dc565b8063a4b2409e14610254578063b531dcba14610290578063b69ef8a8146102cc576100dc565b80638593054b116100ba5780638593054b146101825780638da5cb5b146101be5780639a3fa8c7146101e85780639f39a19414610224576100dc565b8063056c29ee146100e057806336fbad261461011c5780634cd0cb2814610146575b5f80fd5b3480156100eb575f80fd5b5061010660048036038101906101019190612111565b6103c4565b60405161011391906121f6565b60405180910390f35b348015610127575f80fd5b50610130610887565b60405161013d919061221e565b60405180910390f35b348015610151575f80fd5b5061016c60048036038101906101679190612237565b61088d565b60405161017991906121f6565b60405180910390f35b34801561018d575f80fd5b506101a860048036038101906101a39190612237565b610a80565b6040516101b591906121f6565b60405180910390f35b3480156101c9575f80fd5b506101d2610a9d565b6040516101df91906122a1565b60405180910390f35b3480156101f3575f80fd5b5061020e600480360381019061020991906122ba565b610ac0565b60405161021b91906121f6565b60405180910390f35b61023e60048036038101906102399190612237565b610d52565b60405161024b91906121f6565b60405180910390f35b34801561025f575f80fd5b5061027a60048036038101906102759190612237565b6111e0565b60405161028791906121f6565b60405180910390f35b34801561029b575f80fd5b506102b660048036038101906102b19190612237565b611334565b6040516102c391906121f6565b60405180910390f35b3480156102d7575f80fd5b506102e06114e2565b6040516102ed919061221e565b60405180910390f35b348015610301575f80fd5b5061031c60048036038101906103179190612237565b6114e8565b60405161032991906124ad565b60405180910390f35b34801561033d575f80fd5b506103466115d7565b604051610355939291906124cd565b60405180910390f35b348015610369575f80fd5b506103726115ee565b60405161037f91906127a4565b60405180910390f35b348015610393575f80fd5b506103ae60048036038101906103a99190612237565b6118c5565b6040516103bb91906128be565b60405180910390f35b5f80865111610408576040517f08c379a00000000000000000000000000000000000000000000000000000000081526004016103ff90612938565b60405180910390fd5b5f85511161044b576040517f08c379a0000000000000000000000000000000000000000000000000000000008152600401610442906129a0565b60405180910390fd5b5f84511161048e576040517f08c379a000000000000000000000000000000000000000000000000000000000815260040161048590612a08565b60405180910390fd5b5f83116104d0576040517f08c379a00000000000000000000000000000000000000000000000000000000081526004016104c790612a70565b60405180910390fd5b6104d8611f17565b600154815f01818152505033816020019073ffffffffffffffffffffffffffffffffffffffff16908173ffffffffffffffffffffffffffffffffffffffff1681525050868160400181905250858160600181905250848160800181905250838160a0018181525050428160e00181815250508281610100018181525050600681908060018154018082558091505060019003905f5260205f2090600b02015f909190919091505f820151815f01556020820151816001015f6101000a81548173ffffffffffffffffffffffffffffffffffffffff021916908373ffffffffffffffffffffffffffffffffffffffff16021790555060408201518160020190816105e19190612c88565b5060608201518160030190816105f79190612c88565b50608082015181600401908161060d9190612c88565b5060a0820151816005015560c0820151816006015560e082015181600701556101008201518160080155610120820151816009015561014082015181600a015f6101000a81548160ff0219169083600481111561066d5761066c6125a5565b5b02179055505050600160095f60015481526020019081526020015f205f6101000a81548160ff02191690831515021790555060075f3373ffffffffffffffffffffffffffffffffffffffff1673ffffffffffffffffffffffffffffffffffffffff1681526020019081526020015f2081908060018154018082558091505060019003905f5260205f2090600b02015f909190919091505f820151815f01556020820151816001015f6101000a81548173ffffffffffffffffffffffffffffffffffffffff021916908373ffffffffffffffffffffffffffffffffffffffff16021790555060408201518160020190816107669190612c88565b50606082015181600301908161077c9190612c88565b5060808201518160040190816107929190612c88565b5060a0820151816005015560c0820151816006015560e082015181600701556101008201518160080155610120820151816009015561014082015181600a015f6101000a81548160ff021916908360048111156107f2576107f16125a5565b5b02179055505050600160035f015f82825461080d9190612d84565b925050819055503373ffffffffffffffffffffffffffffffffffffffff167faee8e5d3bbb2f71a951b5632cee20f7ac487b9f8ab4f66a236f7694b13af7c6a60015f81548092919061085e90612db7565b9190505542604051610871929190612e48565b60405180910390a2600191505095945050505050565b60015481565b5f8060048111156108a1576108a06125a5565b5b600683815481106108b5576108b4612e82565b5b905f5260205f2090600b0201600a015f9054906101000a900460ff1660048111156108e3576108e26125a5565b5b14610923576040517f08c379a000000000000000000000000000000000000000000000000000000000815260040161091a90612ef9565b60405180910390fd5b6006828154811061093757610936612e82565b5b905f5260205f2090600b02016001015f9054906101000a900473ffffffffffffffffffffffffffffffffffffffff1673ffffffffffffffffffffffffffffffffffffffff163373ffffffffffffffffffffffffffffffffffffffff16146109d3576040517f08c379a00000000000000000000000000000000000000000000000000000000081526004016109ca90612f61565b60405180910390fd5b6003600683815481106109e9576109e8612e82565b5b905f5260205f2090600b0201600a015f6101000a81548160ff02191690836004811115610a1957610a186125a5565b5b0217905550610a2782611bd7565b3373ffffffffffffffffffffffffffffffffffffffff167faee8e5d3bbb2f71a951b5632cee20f7ac487b9f8ab4f66a236f7694b13af7c6a8342604051610a6f929190612fc9565b60405180910390a260019050919050565b6009602052805f5260405f205f915054906101000a900460ff1681565b5f8054906101000a900473ffffffffffffffffffffffffffffffffffffffff1681565b5f60068681548110610ad557610ad4612e82565b5b905f5260205f2090600b02016001015f9054906101000a900473ffffffffffffffffffffffffffffffffffffffff1673ffffffffffffffffffffffffffffffffffffffff163373ffffffffffffffffffffffffffffffffffffffff1614610b71576040517f08c379a0000000000000000000000000000000000000000000000000000000008152600401610b6890612f61565b60405180910390fd5b5f855111610bb4576040517f08c379a0000000000000000000000000000000000000000000000000000000008152600401610bab90612938565b60405180910390fd5b5f845111610bf7576040517f08c379a0000000000000000000000000000000000000000000000000000000008152600401610bee906129a0565b60405180910390fd5b5f835111610c3a576040517f08c379a0000000000000000000000000000000000000000000000000000000008152600401610c3190612a08565b60405180910390fd5b8460068781548110610c4f57610c4e612e82565b5b905f5260205f2090600b02016002019081610c6a9190612c88565b508360068781548110610c8057610c7f612e82565b5b905f5260205f2090600b02016003019081610c9b9190612c88565b508260068781548110610cb157610cb0612e82565b5b905f5260205f2090600b02016004019081610ccc9190612c88565b508160068781548110610ce257610ce1612e82565b5b905f5260205f2090600b0201600801819055503373ffffffffffffffffffffffffffffffffffffffff167faee8e5d3bbb2f71a951b5632cee20f7ac487b9f8ab4f66a236f7694b13af7c6a8742604051610d3d92919061304d565b60405180910390a26001905095945050505050565b5f803411610d95576040517f08c379a0000000000000000000000000000000000000000000000000000000008152600401610d8c906130d1565b60405180910390fd5b60095f8381526020019081526020015f205f9054906101000a900460ff16610df2576040517f08c379a0000000000000000000000000000000000000000000000000000000008152600401610de990613139565b60405180910390fd5b5f6004811115610e0557610e046125a5565b5b60068381548110610e1957610e18612e82565b5b905f5260205f2090600b0201600a015f9054906101000a900460ff166004811115610e4757610e466125a5565b5b14610e87576040517f08c379a0000000000000000000000000000000000000000000000000000000008152600401610e7e90612ef9565b60405180910390fd5b600160036001015f828254610e9c9190612d84565b925050819055503460036002015f828254610eb79190612d84565b925050819055503460068381548110610ed357610ed2612e82565b5b905f5260205f2090600b02016006015f828254610ef09190612d84565b92505081905550600160068381548110610f0d57610f0c612e82565b5b905f5260205f2090600b02016009015f828254610f2a9190612d84565b9250508190555060085f8381526020019081526020015f2060405180608001604052803373ffffffffffffffffffffffffffffffffffffffff1681526020013481526020014281526020015f1515815250908060018154018082558091505060019003905f5260205f2090600402015f909190919091505f820151815f015f6101000a81548173ffffffffffffffffffffffffffffffffffffffff021916908373ffffffffffffffffffffffffffffffffffffffff16021790555060208201518160010155604082015181600201556060820151816003015f6101000a81548160ff02191690831515021790555050503373ffffffffffffffffffffffffffffffffffffffff167faee8e5d3bbb2f71a951b5632cee20f7ac487b9f8ab4f66a236f7694b13af7c6a83426040516110629291906131a1565b60405180910390a26006828154811061107e5761107d612e82565b5b905f5260205f2090600b020160050154600683815481106110a2576110a1612e82565b5b905f5260205f2090600b0201600601541061114f576001600683815481106110cd576110cc612e82565b5b905f5260205f2090600b0201600a015f6101000a81548160ff021916908360048111156110fd576110fc6125a5565b5b02179055506006828154811061111657611115612e82565b5b905f5260205f2090600b02016006015460025f8282546111369190612d84565b9250508190555061114682611d54565b600190506111db565b6006828154811061116357611162612e82565b5b905f5260205f2090600b02016008015442106111d65760026006838154811061118f5761118e612e82565b5b905f5260205f2090600b0201600a015f6101000a81548160ff021916908360048111156111bf576111be6125a5565b5b02179055506111cd82611bd7565b600190506111db565b600190505b919050565b5f600260048111156111f5576111f46125a5565b5b6006838154811061120957611208612e82565b5b905f5260205f2090600b0201600a015f9054906101000a900460ff166004811115611237576112366125a5565b5b141580611298575060036004811115611253576112526125a5565b5b6006838154811061126757611266612e82565b5b905f5260205f2090600b0201600a015f9054906101000a900460ff166004811115611295576112946125a5565b5b14155b6112d7576040517f08c379a00000000000000000000000000000000000000000000000000000000081526004016112ce9061324b565b60405180910390fd5b6002600683815481106112ed576112ec612e82565b5b905f5260205f2090600b0201600a015f6101000a81548160ff0219169083600481111561131d5761131c6125a5565b5b021790555061132b82611bd7565b60019050919050565b5f60016004811115611349576113486125a5565b5b6006838154811061135d5761135c612e82565b5b905f5260205f2090600b0201600a015f9054906101000a900460ff16600481111561138b5761138a6125a5565b5b146113cb576040517f08c379a00000000000000000000000000000000000000000000000000000000081526004016113c2906132b3565b60405180910390fd5b600682815481106113df576113de612e82565b5b905f5260205f2090600b02016001015f9054906101000a900473ffffffffffffffffffffffffffffffffffffffff1673ffffffffffffffffffffffffffffffffffffffff163373ffffffffffffffffffffffffffffffffffffffff16148061149157505f8054906101000a900473ffffffffffffffffffffffffffffffffffffffff1673ffffffffffffffffffffffffffffffffffffffff163373ffffffffffffffffffffffffffffffffffffffff16145b6114d0576040517f08c379a00000000000000000000000000000000000000000000000000000000081526004016114c790612f61565b60405180910390fd5b6114d982611d54565b60019050919050565b60025481565b606060085f8381526020019081526020015f20805480602002602001604051908101604052809291908181526020015f905b828210156115cc578382905f5260205f2090600402016040518060800160405290815f82015f9054906101000a900473ffffffffffffffffffffffffffffffffffffffff1673ffffffffffffffffffffffffffffffffffffffff1673ffffffffffffffffffffffffffffffffffffffff1681526020016001820154815260200160028201548152602001600382015f9054906101000a900460ff1615151515815250508152602001906001019061151a565b505050509050919050565b6003805f0154908060010154908060020154905083565b60606006805480602002602001604051908101604052809291908181526020015f905b828210156118bc578382905f5260205f2090600b0201604051806101600160405290815f8201548152602001600182015f9054906101000a900473ffffffffffffffffffffffffffffffffffffffff1673ffffffffffffffffffffffffffffffffffffffff1673ffffffffffffffffffffffffffffffffffffffff1681526020016002820180546116a190612abb565b80601f01602080910402602001604051908101604052809291908181526020018280546116cd90612abb565b80156117185780601f106116ef57610100808354040283529160200191611718565b820191905f5260205f20905b8154815290600101906020018083116116fb57829003601f168201915b5050505050815260200160038201805461173190612abb565b80601f016020809104026020016040519081016040528092919081815260200182805461175d90612abb565b80156117a85780601f1061177f576101008083540402835291602001916117a8565b820191905f5260205f20905b81548152906001019060200180831161178b57829003601f168201915b505050505081526020016004820180546117c190612abb565b80601f01602080910402602001604051908101604052809291908181526020018280546117ed90612abb565b80156118385780601f1061180f57610100808354040283529160200191611838565b820191905f5260205f20905b81548152906001019060200180831161181b57829003601f168201915b505050505081526020016005820154815260200160068201548152602001600782015481526020016008820154815260200160098201548152602001600a82015f9054906101000a900460ff166004811115611897576118966125a5565b5b60048111156118a9576118a86125a5565b5b8152505081526020019060010190611611565b50505050905090565b6118cd611f17565b60095f8381526020019081526020015f205f9054906101000a900460ff1661192a576040517f08c379a000000000000000000000000000000000000000000000000000000000815260040161192190613139565b60405180910390fd5b6006828154811061193e5761193d612e82565b5b905f5260205f2090600b0201604051806101600160405290815f8201548152602001600182015f9054906101000a900473ffffffffffffffffffffffffffffffffffffffff1673ffffffffffffffffffffffffffffffffffffffff1673ffffffffffffffffffffffffffffffffffffffff1681526020016002820180546119c490612abb565b80601f01602080910402602001604051908101604052809291908181526020018280546119f090612abb565b8015611a3b5780601f10611a1257610100808354040283529160200191611a3b565b820191905f5260205f20905b815481529060010190602001808311611a1e57829003601f168201915b50505050508152602001600382018054611a5490612abb565b80601f0160208091040260200160405190810160405280929190818152602001828054611a8090612abb565b8015611acb5780601f10611aa257610100808354040283529160200191611acb565b820191905f5260205f20905b815481529060010190602001808311611aae57829003601f168201915b50505050508152602001600482018054611ae490612abb565b80601f0160208091040260200160405190810160405280929190818152602001828054611b1090612abb565b8015611b5b5780601f10611b3257610100808354040283529160200191611b5b565b820191905f5260205f20905b815481529060010190602001808311611b3e57829003601f168201915b505050505081526020016005820154815260200160068201548152602001600782015481526020016008820154815260200160098201548152602001600a82015f9054906101000a900460ff166004811115611bba57611bb96125a5565b5b6004811115611bcc57611bcb6125a5565b5b815250509050919050565b5f5b60085f8381526020019081526020015f2080549050811015611d50575f60085f8481526020019081526020015f208281548110611c1957611c18612e82565b5b905f5260205f2090600402015f015f9054906101000a900473ffffffffffffffffffffffffffffffffffffffff1690505f60085f8581526020019081526020015f208381548110611c6d57611c6c612e82565b5b905f5260205f209060040201600101549050600160085f8681526020019081526020015f208481548110611ca457611ca3612e82565b5b905f5260205f2090600402016003015f6101000a81548160ff0219169083151502179055504260085f8681526020019081526020015f208481548110611ced57611cec612e82565b5b905f5260205f20906004020160020181905550611d0a8282611ea1565b600160036001015f828254611d1f91906132d1565b925050819055508060036002015f828254611d3a91906132d1565b9250508190555050508080600101915050611bd9565b5050565b5f60068281548110611d6957611d68612e82565b5b905f5260205f2090600b0201600601549050600460068381548110611d9157611d90612e82565b5b905f5260205f2090600b0201600a015f6101000a81548160ff02191690836004811115611dc157611dc06125a5565b5b0217905550611e1260068381548110611ddd57611ddc612e82565b5b905f5260205f2090600b02016001015f9054906101000a900473ffffffffffffffffffffffffffffffffffffffff1682611ea1565b60068281548110611e2657611e25612e82565b5b905f5260205f2090600b02016006015460025f828254611e4691906132d1565b925050819055503373ffffffffffffffffffffffffffffffffffffffff167faee8e5d3bbb2f71a951b5632cee20f7ac487b9f8ab4f66a236f7694b13af7c6a8342604051611e9592919061334e565b60405180910390a25050565b5f8273ffffffffffffffffffffffffffffffffffffffff1682604051611ec6906133b5565b5f6040518083038185875af1925050503d805f8114611f00576040519150601f19603f3d011682016040523d82523d5f602084013e611f05565b606091505b5050905080611f12575f80fd5b505050565b6040518061016001604052805f81526020015f73ffffffffffffffffffffffffffffffffffffffff1681526020016060815260200160608152602001606081526020015f81526020015f81526020015f81526020015f81526020015f81526020015f6004811115611f8b57611f8a6125a5565b5b81525090565b5f604051905090565b5f80fd5b5f80fd5b5f80fd5b5f80fd5b5f601f19601f8301169050919050565b7f4e487b71000000000000000000000000000000000000000000000000000000005f52604160045260245ffd5b611ff082611faa565b810181811067ffffffffffffffff8211171561200f5761200e611fba565b5b80604052505050565b5f612021611f91565b905061202d8282611fe7565b919050565b5f67ffffffffffffffff82111561204c5761204b611fba565b5b61205582611faa565b9050602081019050919050565b828183375f83830152505050565b5f61208261207d84612032565b612018565b90508281526020810184848401111561209e5761209d611fa6565b5b6120a9848285612062565b509392505050565b5f82601f8301126120c5576120c4611fa2565b5b81356120d5848260208601612070565b91505092915050565b5f819050919050565b6120f0816120de565b81146120fa575f80fd5b50565b5f8135905061210b816120e7565b92915050565b5f805f805f60a0868803121561212a57612129611f9a565b5b5f86013567ffffffffffffffff81111561214757612146611f9e565b5b612153888289016120b1565b955050602086013567ffffffffffffffff81111561217457612173611f9e565b5b612180888289016120b1565b945050604086013567ffffffffffffffff8111156121a1576121a0611f9e565b5b6121ad888289016120b1565b93505060606121be888289016120fd565b92505060806121cf888289016120fd565b9150509295509295909350565b5f8115159050919050565b6121f0816121dc565b82525050565b5f6020820190506122095f8301846121e7565b92915050565b612218816120de565b82525050565b5f6020820190506122315f83018461220f565b92915050565b5f6020828403121561224c5761224b611f9a565b5b5f612259848285016120fd565b91505092915050565b5f73ffffffffffffffffffffffffffffffffffffffff82169050919050565b5f61228b82612262565b9050919050565b61229b81612281565b82525050565b5f6020820190506122b45f830184612292565b92915050565b5f805f805f60a086880312156122d3576122d2611f9a565b5b5f6122e0888289016120fd565b955050602086013567ffffffffffffffff81111561230157612300611f9e565b5b61230d888289016120b1565b945050604086013567ffffffffffffffff81111561232e5761232d611f9e565b5b61233a888289016120b1565b935050606086013567ffffffffffffffff81111561235b5761235a611f9e565b5b612367888289016120b1565b9250506080612378888289016120fd565b9150509295509295909350565b5f81519050919050565b5f82825260208201905092915050565b5f819050602082019050919050565b6123b781612281565b82525050565b6123c6816120de565b82525050565b6123d5816121dc565b82525050565b608082015f8201516123ef5f8501826123ae565b50602082015161240260208501826123bd565b50604082015161241560408501826123bd565b50606082015161242860608501826123cc565b50505050565b5f61243983836123db565b60808301905092915050565b5f602082019050919050565b5f61245b82612385565b612465818561238f565b93506124708361239f565b805f5b838110156124a0578151612487888261242e565b975061249283612445565b925050600181019050612473565b5085935050505092915050565b5f6020820190508181035f8301526124c58184612451565b905092915050565b5f6060820190506124e05f83018661220f565b6124ed602083018561220f565b6124fa604083018461220f565b949350505050565b5f81519050919050565b5f82825260208201905092915050565b5f819050602082019050919050565b5f81519050919050565b5f82825260208201905092915050565b5f5b83811015612562578082015181840152602081019050612547565b5f8484015250505050565b5f6125778261252b565b6125818185612535565b9350612591818560208601612545565b61259a81611faa565b840191505092915050565b7f4e487b71000000000000000000000000000000000000000000000000000000005f52602160045260245ffd5b600581106125e3576125e26125a5565b5b50565b5f8190506125f3826125d2565b919050565b5f612602826125e6565b9050919050565b612612816125f8565b82525050565b5f61016083015f83015161262e5f8601826123bd565b50602083015161264160208601826123ae565b5060408301518482036040860152612659828261256d565b91505060608301518482036060860152612673828261256d565b9150506080830151848203608086015261268d828261256d565b91505060a08301516126a260a08601826123bd565b5060c08301516126b560c08601826123bd565b5060e08301516126c860e08601826123bd565b506101008301516126dd6101008601826123bd565b506101208301516126f26101208601826123bd565b50610140830151612707610140860182612609565b508091505092915050565b5f61271d8383612618565b905092915050565b5f602082019050919050565b5f61273b82612502565b612745818561250c565b9350836020820285016127578561251c565b805f5b8581101561279257848403895281516127738582612712565b945061277e83612725565b925060208a0199505060018101905061275a565b50829750879550505050505092915050565b5f6020820190508181035f8301526127bc8184612731565b905092915050565b5f61016083015f8301516127da5f8601826123bd565b5060208301516127ed60208601826123ae565b5060408301518482036040860152612805828261256d565b9150506060830151848203606086015261281f828261256d565b91505060808301518482036080860152612839828261256d565b91505060a083015161284e60a08601826123bd565b5060c083015161286160c08601826123bd565b5060e083015161287460e08601826123bd565b506101008301516128896101008601826123bd565b5061012083015161289e6101208601826123bd565b506101408301516128b3610140860182612609565b508091505092915050565b5f6020820190508181035f8301526128d681846127c4565b905092915050565b5f82825260208201905092915050565b7f5469746c652063616e6e6f7420626520656d70747900000000000000000000005f82015250565b5f6129226015836128de565b915061292d826128ee565b602082019050919050565b5f6020820190508181035f83015261294f81612916565b9050919050565b7f4465736372697074696f6e2063616e6e6f7420626520656d70747900000000005f82015250565b5f61298a601b836128de565b915061299582612956565b602082019050919050565b5f6020820190508181035f8301526129b78161297e565b9050919050565b7f496d61676555524c2063616e6e6f7420626520656d70747900000000000000005f82015250565b5f6129f26018836128de565b91506129fd826129be565b602082019050919050565b5f6020820190508181035f830152612a1f816129e6565b9050919050565b7f436f73742063616e6e6f74206265207a65726f000000000000000000000000005f82015250565b5f612a5a6013836128de565b9150612a6582612a26565b602082019050919050565b5f6020820190508181035f830152612a8781612a4e565b9050919050565b7f4e487b71000000000000000000000000000000000000000000000000000000005f52602260045260245ffd5b5f6002820490506001821680612ad257607f821691505b602082108103612ae557612ae4612a8e565b5b50919050565b5f819050815f5260205f209050919050565b5f6020601f8301049050919050565b5f82821b905092915050565b5f60088302612b477fffffffffffffffffffffffffffffffffffffffffffffffffffffffffffffffff82612b0c565b612b518683612b0c565b95508019841693508086168417925050509392505050565b5f819050919050565b5f612b8c612b87612b82846120de565b612b69565b6120de565b9050919050565b5f819050919050565b612ba583612b72565b612bb9612bb182612b93565b848454612b18565b825550505050565b5f90565b612bcd612bc1565b612bd8818484612b9c565b505050565b5b81811015612bfb57612bf05f82612bc5565b600181019050612bde565b5050565b601f821115612c4057612c1181612aeb565b612c1a84612afd565b81016020851015612c29578190505b612c3d612c3585612afd565b830182612bdd565b50505b505050565b5f82821c905092915050565b5f612c605f1984600802612c45565b1980831691505092915050565b5f612c788383612c51565b9150826002028217905092915050565b612c918261252b565b67ffffffffffffffff811115612caa57612ca9611fba565b5b612cb48254612abb565b612cbf828285612bff565b5f60209050601f831160018114612cf0575f8415612cde578287015190505b612ce88582612c6d565b865550612d4f565b601f198416612cfe86612aeb565b5f5b82811015612d2557848901518255600182019150602085019450602081019050612d00565b86831015612d425784890151612d3e601f891682612c51565b8355505b6001600288020188555050505b505050505050565b7f4e487b71000000000000000000000000000000000000000000000000000000005f52601160045260245ffd5b5f612d8e826120de565b9150612d99836120de565b9250828201905080821115612db157612db0612d57565b5b92915050565b5f612dc1826120de565b91507fffffffffffffffffffffffffffffffffffffffffffffffffffffffffffffffff8203612df357612df2612d57565b5b600182019050919050565b7f50524f4a454354204352454154454400000000000000000000000000000000005f82015250565b5f612e32600f836128de565b9150612e3d82612dfe565b602082019050919050565b5f606082019050612e5b5f83018561220f565b8181036020830152612e6c81612e26565b9050612e7b604083018461220f565b9392505050565b7f4e487b71000000000000000000000000000000000000000000000000000000005f52603260045260245ffd5b7f50726f6a656374206e6f206c6f6e676572206f70656e656400000000000000005f82015250565b5f612ee36018836128de565b9150612eee82612eaf565b602082019050919050565b5f6020820190508181035f830152612f1081612ed7565b9050919050565b7f556e617574686f72697a656420456e74697479000000000000000000000000005f82015250565b5f612f4b6013836128de565b9150612f5682612f17565b602082019050919050565b5f6020820190508181035f830152612f7881612f3f565b9050919050565b7f50524f4a4543542044454c4554454400000000000000000000000000000000005f82015250565b5f612fb3600f836128de565b9150612fbe82612f7f565b602082019050919050565b5f606082019050612fdc5f83018561220f565b8181036020830152612fed81612fa7565b9050612ffc604083018461220f565b9392505050565b7f50524f4a454354205550444154454400000000000000000000000000000000005f82015250565b5f613037600f836128de565b915061304282613003565b602082019050919050565b5f6060820190506130605f83018561220f565b81810360208301526130718161302b565b9050613080604083018461220f565b9392505050565b7f4574686572206d7573742062652067726561746572207468616e207a65726f005f82015250565b5f6130bb601f836128de565b91506130c682613087565b602082019050919050565b5f6020820190508181035f8301526130e8816130af565b9050919050565b7f50726f6a656374206e6f7420666f756e640000000000000000000000000000005f82015250565b5f6131236011836128de565b915061312e826130ef565b602082019050919050565b5f6020820190508181035f83015261315081613117565b9050919050565b7f50524f4a454354204241434b45440000000000000000000000000000000000005f82015250565b5f61318b600e836128de565b915061319682613157565b602082019050919050565b5f6060820190506131b45f83018561220f565b81810360208301526131c58161317f565b90506131d4604083018461220f565b9392505050565b7f50726f6a656374206e6f74206d61726b656420617320726576657274206f72205f8201527f64656c6574650000000000000000000000000000000000000000000000000000602082015250565b5f6132356026836128de565b9150613240826131db565b604082019050919050565b5f6020820190508181035f83015261326281613229565b9050919050565b7f50726f6a656374206e6f7420415050524f5645440000000000000000000000005f82015250565b5f61329d6014836128de565b91506132a882613269565b602082019050919050565b5f6020820190508181035f8301526132ca81613291565b9050919050565b5f6132db826120de565b91506132e6836120de565b92508282039050818111156132fe576132fd612d57565b5b92915050565b7f50524f4a4543542050414944204f5554000000000000000000000000000000005f82015250565b5f6133386010836128de565b915061334382613304565b602082019050919050565b5f6060820190506133615f83018561220f565b81810360208301526133728161332c565b9050613381604083018461220f565b9392505050565b5f81905092915050565b50565b5f6133a05f83613388565b91506133ab82613392565b5f82019050919050565b5f6133bf82613395565b915081905091905056fea26469706673582212207ab9e7b2912a41d5897095ba1ba392af53916f67755ded25a9bd0393505bd1c164736f6c63430008160033",
  "linkReferences": {},
  "deployedLinkReferences": {}
}